{
    "abi": [
        {
            "type": "constructor",
            "inputs": [
                {
                    "name": "migration",
                    "type": "address",
                    "internalType": "address"
                },
                {
                    "name": "emissionManager",
                    "type": "address",
                    "internalType": "address"
                },
                {
                    "name": "protocolCouncil",
                    "type": "address",
                    "internalType": "address"
                },
                {
                    "name": "emergencyCouncil",
                    "type": "address",
                    "internalType": "address"
                }
            ],
            "stateMutability": "nonpayable"
        },
        {
            "type": "function",
            "name": "CAP_MANAGER_ROLE",
            "inputs": [],
            "outputs": [
                {
                    "name": "",
                    "type": "bytes32",
                    "internalType": "bytes32"
                }
            ],
            "stateMutability": "view"
        },
        {
            "type": "function",
            "name": "DEFAULT_ADMIN_ROLE",
            "inputs": [],
            "outputs": [
                {
                    "name": "",
                    "type": "bytes32",
                    "internalType": "bytes32"
                }
            ],
            "stateMutability": "view"
        },
        {
            "type": "function",
            "name": "DOMAIN_SEPARATOR",
            "inputs": [],
            "outputs": [
                {
                    "name": "",
                    "type": "bytes32",
                    "internalType": "bytes32"
                }
            ],
            "stateMutability": "view"
        },
        {
            "type": "function",
            "name": "EMISSION_ROLE",
            "inputs": [],
            "outputs": [
                {
                    "name": "",
                    "type": "bytes32",
                    "internalType": "bytes32"
                }
            ],
            "stateMutability": "view"
        },
        {
            "type": "function",
            "name": "PERMIT2",
            "inputs": [],
            "outputs": [
                {
                    "name": "",
                    "type": "address",
                    "internalType": "address"
                }
            ],
            "stateMutability": "view"
        },
        {
            "type": "function",
            "name": "PERMIT2_REVOKER_ROLE",
            "inputs": [],
            "outputs": [
                {
                    "name": "",
                    "type": "bytes32",
                    "internalType": "bytes32"
                }
            ],
            "stateMutability": "view"
        },
        {
            "type": "function",
            "name": "allowance",
            "inputs": [
                {
                    "name": "owner",
                    "type": "address",
                    "internalType": "address"
                },
                {
                    "name": "spender",
                    "type": "address",
                    "internalType": "address"
                }
            ],
            "outputs": [
                {
                    "name": "",
                    "type": "uint256",
                    "internalType": "uint256"
                }
            ],
            "stateMutability": "view"
        },
        {
            "type": "function",
            "name": "approve",
            "inputs": [
                {
                    "name": "spender",
                    "type": "address",
                    "internalType": "address"
                },
                {
                    "name": "amount",
                    "type": "uint256",
                    "internalType": "uint256"
                }
            ],
            "outputs": [
                {
                    "name": "",
                    "type": "bool",
                    "internalType": "bool"
                }
            ],
            "stateMutability": "nonpayable"
        },
        {
            "type": "function",
            "name": "balanceOf",
            "inputs": [
                {
                    "name": "account",
                    "type": "address",
                    "internalType": "address"
                }
            ],
            "outputs": [
                {
                    "name": "",
                    "type": "uint256",
                    "internalType": "uint256"
                }
            ],
            "stateMutability": "view"
        },
        {
            "type": "function",
            "name": "decimals",
            "inputs": [],
            "outputs": [
                {
                    "name": "",
                    "type": "uint8",
                    "internalType": "uint8"
                }
            ],
            "stateMutability": "view"
        },
        {
            "type": "function",
            "name": "decreaseAllowance",
            "inputs": [
                {
                    "name": "spender",
                    "type": "address",
                    "internalType": "address"
                },
                {
                    "name": "subtractedValue",
                    "type": "uint256",
                    "internalType": "uint256"
                }
            ],
            "outputs": [
                {
                    "name": "",
                    "type": "bool",
                    "internalType": "bool"
                }
            ],
            "stateMutability": "nonpayable"
        },
        {
            "type": "function",
            "name": "eip712Domain",
            "inputs": [],
            "outputs": [
                {
                    "name": "fields",
                    "type": "bytes1",
                    "internalType": "bytes1"
                },
                {
                    "name": "name",
                    "type": "string",
                    "internalType": "string"
                },
                {
                    "name": "version",
                    "type": "string",
                    "internalType": "string"
                },
                {
                    "name": "chainId",
                    "type": "uint256",
                    "internalType": "uint256"
                },
                {
                    "name": "verifyingContract",
                    "type": "address",
                    "internalType": "address"
                },
                {
                    "name": "salt",
                    "type": "bytes32",
                    "internalType": "bytes32"
                },
                {
                    "name": "extensions",
                    "type": "uint256[]",
                    "internalType": "uint256[]"
                }
            ],
            "stateMutability": "view"
        },
        {
            "type": "function",
            "name": "getRoleAdmin",
            "inputs": [
                {
                    "name": "role",
                    "type": "bytes32",
                    "internalType": "bytes32"
                }
            ],
            "outputs": [
                {
                    "name": "",
                    "type": "bytes32",
                    "internalType": "bytes32"
                }
            ],
            "stateMutability": "view"
        },
        {
            "type": "function",
            "name": "getRoleMember",
            "inputs": [
                {
                    "name": "role",
                    "type": "bytes32",
                    "internalType": "bytes32"
                },
                {
                    "name": "index",
                    "type": "uint256",
                    "internalType": "uint256"
                }
            ],
            "outputs": [
                {
                    "name": "",
                    "type": "address",
                    "internalType": "address"
                }
            ],
            "stateMutability": "view"
        },
        {
            "type": "function",
            "name": "getRoleMemberCount",
            "inputs": [
                {
                    "name": "role",
                    "type": "bytes32",
                    "internalType": "bytes32"
                }
            ],
            "outputs": [
                {
                    "name": "",
                    "type": "uint256",
                    "internalType": "uint256"
                }
            ],
            "stateMutability": "view"
        },
        {
            "type": "function",
            "name": "grantRole",
            "inputs": [
                {
                    "name": "role",
                    "type": "bytes32",
                    "internalType": "bytes32"
                },
                {
                    "name": "account",
                    "type": "address",
                    "internalType": "address"
                }
            ],
            "outputs": [],
            "stateMutability": "nonpayable"
        },
        {
            "type": "function",
            "name": "hasRole",
            "inputs": [
                {
                    "name": "role",
                    "type": "bytes32",
                    "internalType": "bytes32"
                },
                {
                    "name": "account",
                    "type": "address",
                    "internalType": "address"
                }
            ],
            "outputs": [
                {
                    "name": "",
                    "type": "bool",
                    "internalType": "bool"
                }
            ],
            "stateMutability": "view"
        },
        {
            "type": "function",
            "name": "increaseAllowance",
            "inputs": [
                {
                    "name": "spender",
                    "type": "address",
                    "internalType": "address"
                },
                {
                    "name": "addedValue",
                    "type": "uint256",
                    "internalType": "uint256"
                }
            ],
            "outputs": [
                {
                    "name": "",
                    "type": "bool",
                    "internalType": "bool"
                }
            ],
            "stateMutability": "nonpayable"
        },
        {
            "type": "function",
            "name": "lastMint",
            "inputs": [],
            "outputs": [
                {
                    "name": "",
                    "type": "uint256",
                    "internalType": "uint256"
                }
            ],
            "stateMutability": "view"
        },
        {
            "type": "function",
            "name": "mint",
            "inputs": [
                {
                    "name": "to",
                    "type": "address",
                    "internalType": "address"
                },
                {
                    "name": "amount",
                    "type": "uint256",
                    "internalType": "uint256"
                }
            ],
            "outputs": [],
            "stateMutability": "nonpayable"
        },
        {
            "type": "function",
            "name": "mintPerSecondCap",
            "inputs": [],
            "outputs": [
                {
                    "name": "",
                    "type": "uint256",
                    "internalType": "uint256"
                }
            ],
            "stateMutability": "view"
        },
        {
            "type": "function",
            "name": "name",
            "inputs": [],
            "outputs": [
                {
                    "name": "",
                    "type": "string",
                    "internalType": "string"
                }
            ],
            "stateMutability": "view"
        },
        {
            "type": "function",
            "name": "nonces",
            "inputs": [
                {
                    "name": "owner",
                    "type": "address",
                    "internalType": "address"
                }
            ],
            "outputs": [
                {
                    "name": "",
                    "type": "uint256",
                    "internalType": "uint256"
                }
            ],
            "stateMutability": "view"
        },
        {
            "type": "function",
            "name": "permit",
            "inputs": [
                {
                    "name": "owner",
                    "type": "address",
                    "internalType": "address"
                },
                {
                    "name": "spender",
                    "type": "address",
                    "internalType": "address"
                },
                {
                    "name": "value",
                    "type": "uint256",
                    "internalType": "uint256"
                },
                {
                    "name": "deadline",
                    "type": "uint256",
                    "internalType": "uint256"
                },
                {
                    "name": "v",
                    "type": "uint8",
                    "internalType": "uint8"
                },
                {
                    "name": "r",
                    "type": "bytes32",
                    "internalType": "bytes32"
                },
                {
                    "name": "s",
                    "type": "bytes32",
                    "internalType": "bytes32"
                }
            ],
            "outputs": [],
            "stateMutability": "nonpayable"
        },
        {
            "type": "function",
            "name": "permit2Enabled",
            "inputs": [],
            "outputs": [
                {
                    "name": "",
                    "type": "bool",
                    "internalType": "bool"
                }
            ],
            "stateMutability": "view"
        },
        {
            "type": "function",
            "name": "renounceRole",
            "inputs": [
                {
                    "name": "role",
                    "type": "bytes32",
                    "internalType": "bytes32"
                },
                {
                    "name": "account",
                    "type": "address",
                    "internalType": "address"
                }
            ],
            "outputs": [],
            "stateMutability": "nonpayable"
        },
        {
            "type": "function",
            "name": "revokeRole",
            "inputs": [
                {
                    "name": "role",
                    "type": "bytes32",
                    "internalType": "bytes32"
                },
                {
                    "name": "account",
                    "type": "address",
                    "internalType": "address"
                }
            ],
            "outputs": [],
            "stateMutability": "nonpayable"
        },
        {
            "type": "function",
            "name": "supportsInterface",
            "inputs": [
                {
                    "name": "interfaceId",
                    "type": "bytes4",
                    "internalType": "bytes4"
                }
            ],
            "outputs": [
                {
                    "name": "",
                    "type": "bool",
                    "internalType": "bool"
                }
            ],
            "stateMutability": "view"
        },
        {
            "type": "function",
            "name": "symbol",
            "inputs": [],
            "outputs": [
                {
                    "name": "",
                    "type": "string",
                    "internalType": "string"
                }
            ],
            "stateMutability": "view"
        },
        {
            "type": "function",
            "name": "totalSupply",
            "inputs": [],
            "outputs": [
                {
                    "name": "",
                    "type": "uint256",
                    "internalType": "uint256"
                }
            ],
            "stateMutability": "view"
        },
        {
            "type": "function",
            "name": "transfer",
            "inputs": [
                {
                    "name": "to",
                    "type": "address",
                    "internalType": "address"
                },
                {
                    "name": "amount",
                    "type": "uint256",
                    "internalType": "uint256"
                }
            ],
            "outputs": [
                {
                    "name": "",
                    "type": "bool",
                    "internalType": "bool"
                }
            ],
            "stateMutability": "nonpayable"
        },
        {
            "type": "function",
            "name": "transferFrom",
            "inputs": [
                {
                    "name": "from",
                    "type": "address",
                    "internalType": "address"
                },
                {
                    "name": "to",
                    "type": "address",
                    "internalType": "address"
                },
                {
                    "name": "amount",
                    "type": "uint256",
                    "internalType": "uint256"
                }
            ],
            "outputs": [
                {
                    "name": "",
                    "type": "bool",
                    "internalType": "bool"
                }
            ],
            "stateMutability": "nonpayable"
        },
        {
            "type": "function",
            "name": "updateMintCap",
            "inputs": [
                {
                    "name": "newCap",
                    "type": "uint256",
                    "internalType": "uint256"
                }
            ],
            "outputs": [],
            "stateMutability": "nonpayable"
        },
        {
            "type": "function",
            "name": "updatePermit2Allowance",
            "inputs": [
                {
                    "name": "enabled",
                    "type": "bool",
                    "internalType": "bool"
                }
            ],
            "outputs": [],
            "stateMutability": "nonpayable"
        },
        {
            "type": "function",
            "name": "version",
            "inputs": [],
            "outputs": [
                {
                    "name": "",
                    "type": "string",
                    "internalType": "string"
                }
            ],
            "stateMutability": "pure"
        },
        {
            "type": "event",
            "name": "Approval",
            "inputs": [
                {
                    "name": "owner",
                    "type": "address",
                    "indexed": true,
                    "internalType": "address"
                },
                {
                    "name": "spender",
                    "type": "address",
                    "indexed": true,
                    "internalType": "address"
                },
                {
                    "name": "value",
                    "type": "uint256",
                    "indexed": false,
                    "internalType": "uint256"
                }
            ],
            "anonymous": false
        },
        {
            "type": "event",
            "name": "EIP712DomainChanged",
            "inputs": [],
            "anonymous": false
        },
        {
            "type": "event",
            "name": "MintCapUpdated",
            "inputs": [
                {
                    "name": "oldCap",
                    "type": "uint256",
                    "indexed": false,
                    "internalType": "uint256"
                },
                {
                    "name": "newCap",
                    "type": "uint256",
                    "indexed": false,
                    "internalType": "uint256"
                }
            ],
            "anonymous": false
        },
        {
            "type": "event",
            "name": "Permit2AllowanceUpdated",
            "inputs": [
                {
                    "name": "enabled",
                    "type": "bool",
                    "indexed": false,
                    "internalType": "bool"
                }
            ],
            "anonymous": false
        },
        {
            "type": "event",
            "name": "RoleAdminChanged",
            "inputs": [
                {
                    "name": "role",
                    "type": "bytes32",
                    "indexed": true,
                    "internalType": "bytes32"
                },
                {
                    "name": "previousAdminRole",
                    "type": "bytes32",
                    "indexed": true,
                    "internalType": "bytes32"
                },
                {
                    "name": "newAdminRole",
                    "type": "bytes32",
                    "indexed": true,
                    "internalType": "bytes32"
                }
            ],
            "anonymous": false
        },
        {
            "type": "event",
            "name": "RoleGranted",
            "inputs": [
                {
                    "name": "role",
                    "type": "bytes32",
                    "indexed": true,
                    "internalType": "bytes32"
                },
                {
                    "name": "account",
                    "type": "address",
                    "indexed": true,
                    "internalType": "address"
                },
                {
                    "name": "sender",
                    "type": "address",
                    "indexed": true,
                    "internalType": "address"
                }
            ],
            "anonymous": false
        },
        {
            "type": "event",
            "name": "RoleRevoked",
            "inputs": [
                {
                    "name": "role",
                    "type": "bytes32",
                    "indexed": true,
                    "internalType": "bytes32"
                },
                {
                    "name": "account",
                    "type": "address",
                    "indexed": true,
                    "internalType": "address"
                },
                {
                    "name": "sender",
                    "type": "address",
                    "indexed": true,
                    "internalType": "address"
                }
            ],
            "anonymous": false
        },
        {
            "type": "event",
            "name": "Transfer",
            "inputs": [
                {
                    "name": "from",
                    "type": "address",
                    "indexed": true,
                    "internalType": "address"
                },
                {
                    "name": "to",
                    "type": "address",
                    "indexed": true,
                    "internalType": "address"
                },
                {
                    "name": "value",
                    "type": "uint256",
                    "indexed": false,
                    "internalType": "uint256"
                }
            ],
            "anonymous": false
        },
        {
            "type": "error",
            "name": "InvalidAddress",
            "inputs": []
        },
        {
            "type": "error",
            "name": "InvalidShortString",
            "inputs": []
        },
        {
            "type": "error",
            "name": "MaxMintExceeded",
            "inputs": [
                {
                    "name": "maxMint",
                    "type": "uint256",
                    "internalType": "uint256"
                },
                {
                    "name": "mintRequested",
                    "type": "uint256",
                    "internalType": "uint256"
                }
            ]
        },
        {
            "type": "error",
            "name": "StringTooLong",
            "inputs": [
                {
                    "name": "str",
                    "type": "string",
                    "internalType": "string"
                }
            ]
        }
    ],
    "bytecode": {
        "object": "0x61016034620008c157601f6200305838819003918201601f19168301916001600160401b038311848410176200066257808492608094604052833981010312620008c1576200004e81620008e2565b6200005c60208301620008e2565b6200007860606200007060408601620008e2565b9401620008e2565b91604051916200008883620008c6565b601083526f21b7bb30b632b73a102c102a37b5b2b760811b9485602085015260405195620000b687620008c6565b601087526020870152604051620000cd81620008c6565b600381526210d61560ea1b602082015260405196620000ec88620008c6565b60018852603160f81b60208901528051906001600160401b038211620006625760035490600182811c92168015620008b6575b6020831014620007885781601f84931162000844575b50602090601f8311600114620007b557600092620007a9575b50508160011b916000199060031b1c1916176003555b8051906001600160401b038211620006625760045490600182811c921680156200079e575b6020831014620007885781601f84931162000713575b50602090601f8311600114620006845760009262000678575b50508160011b916000199060031b1c1916176004555b620001d984620009ae565b94610120958652620001eb8762000b72565b9461014095865260208151910120968760e0526020815191012091610100978389524660a0526040519360208501917f8b73c3c69bb8fe3d512ecc4cf759cc79239f7b179b0ffacaa9a75d522b39400f8352604086015260608501524660808501523060a085015260a0845260c084019380851060018060401b03861117620006625760408590525190206080523060c0526722b1c8c1227a0000600b556001600160a01b0393858516159384801562000657575b80156200064c575b6200063d5750848216600090815260008051602062002ff883398151915260205260409020546200041393926200040d9290916200038e91889160ff1615620005f7575b60008052600a602052620003238483167f13da86008ba1c6922daee3e07db95305ef49ebced9f5467a0b8613fcc6b343e362000d2a565b50808216600090815260008051602062003018833981519152602052604090205460ff1615620005a0575b60008051602062003038833981519152600052600a602052167f5da2288e7399ef58b3daddbf3afade00d52d6de048c7a8bef231c102a03b7b8062000d2a565b5080861660009081527f9c3cc61ff729e549a457fdfb4ddb7d94f542eb7568a065fdcf3814d99dec17a460205260409020547f027f9f680a0c6704fd9796b55c67fe885252243966ecb05a88f3e7873c845d9a9060ff16156200055a575b600052600a60205262000406868216604060002062000d2a565b50620008f7565b620008f7565b6200051557600254916b033b2e3c9fd0803ce800000092838101809111620004ff576002551660008181526020818152604080832080548601905551938452919290917fddf252ad1be2c89b69c2b068fc378daa952ba7f163c4a11628f55a4df523b3ef91a342600c557f383d8f27281deff0ab982f76ad2feac76f0cb5d922008a4642d8765c74859132602060405160018152a1600160ff19600d541617600d5560405191612220938462000db8853960805184611d30015260a05184611dfc015260c05184611cfa015260e05184611d7f01525183611da5015251826109420152518161096c0152f35b634e487b7160e01b600052601160045260246000fd5b60405162461bcd60e51b815260206004820152601f60248201527f45524332303a206d696e7420746f20746865207a65726f2061646472657373006044820152606490fd5b80600052600960205260406000208783166000526020526040600020600160ff19825416179055338783168260008051602062002fd8833981519152600080a4620003ec565b80821660008181526000805160206200301883398151915260205260408120805460ff19166001179055339190600080516020620030388339815191529060008051602062002fd88339815191529080a46200034e565b838216600081815260008051602062002ff883398151915260205260408120805460ff1916600117905533919060008051602062002fd88339815191528180a4620002ec565b63e6c4247b60e01b8152600490fd5b5085841615620002a8565b5085831615620002a0565b634e487b7160e01b600052604160045260246000fd5b015190503880620001b8565b6004600090815293507f8a35acfbc15ff81a39ae7d344fd709f28e8600b4aa8c65c6b64bfe7fe36bd19b91905b601f1984168510620006f7576001945083601f19811610620006dd575b505050811b01600455620001ce565b015160001960f88460031b161c19169055388080620006ce565b81810151835560209485019460019093019290910190620006b1565b60046000529091507f8a35acfbc15ff81a39ae7d344fd709f28e8600b4aa8c65c6b64bfe7fe36bd19b601f840160051c810191602085106200077d575b90601f859493920160051c01905b8181106200076d57506200019f565b600081558493506001016200075e565b909150819062000750565b634e487b7160e01b600052602260045260246000fd5b91607f169162000189565b0151905038806200014e565b6003600090815293507fc2575a0e9e593c00f959f8c92f12db2869c3395a3b0502d05e2516446f71f85b91905b601f198416851062000828576001945083601f198116106200080e575b505050811b0160035562000164565b015160001960f88460031b161c19169055388080620007ff565b81810151835560209485019460019093019290910190620007e2565b60036000529091507fc2575a0e9e593c00f959f8c92f12db2869c3395a3b0502d05e2516446f71f85b601f840160051c810160208510620008ae575b90849392915b601f830160051c820181106200089e57505062000135565b6000815585945060010162000886565b508062000880565b91607f16916200011f565b600080fd5b604081019081106001600160401b038211176200066257604052565b51906001600160a01b0382168203620008c157565b6001600160a01b031660008181527f9329b3c9f0d3acb42b7f4f684aec754024a8d55b89df18cc71b76f6ae510cd39602052604080822054620009709392907fbd4c1461ef59750b24719a44d7e2a7948c57fd12c98e333541b7ea7b61f07cb79060ff161562000973575b8152600a6020522062000d2a565b50565b8082526009602052828220848352602052828220600160ff1982541617905533848260008051602062002fd88339815191528580a462000962565b8051602091908281101562000a4d575090601f825111620009ec5780825192015190808310620009dd57501790565b82600019910360031b1b161790565b90604051809263305a27a960e01b82528060048301528251908160248401526000935b82851062000a33575050604492506000838284010152601f80199101168101030190fd5b848101820151868601604401529381019385935062000a0f565b6001600160401b03811162000662576005928354926001938481811c9116801562000b67575b838210146200078857601f811162000b30575b5081601f841160011462000ac6575092829391839260009462000aba575b50501b916000199060031b1c191617905560ff90565b01519250388062000aa4565b919083601f1981168760005284600020946000905b8883831062000b15575050501062000afb575b505050811b01905560ff90565b015160001960f88460031b161c1916905538808062000aee565b85870151885590960195948501948793509081019062000adb565b8560005284601f846000209201871c820191601f8601881c015b82811062000b5a57505062000a86565b6000815501859062000b4a565b90607f169062000a73565b80516020908181101562000c005750601f82511162000b9f5780825192015190808310620009dd57501790565b90604051809263305a27a960e01b82528060048301528251908160248401526000935b82851062000be6575050604492506000838284010152601f80199101168101030190fd5b848101820151868601604401529381019385935062000bc2565b906001600160401b0382116200066257600654926001938481811c9116801562000d1f575b838210146200078857601f811162000ce5575b5081601f841160011462000c79575092829391839260009462000c6d575b50501b916000199060031b1c19161760065560ff90565b01519250388062000c56565b919083601f198116600660005284600020946000905b8883831062000cca575050501062000cb0575b505050811b0160065560ff90565b015160001960f88460031b161c1916905538808062000ca2565b85870151885590960195948501948793509081019062000c8f565b600660005284601f84600020920160051c820191601f860160051c015b82811062000d1257505062000c38565b6000815501859062000d02565b90607f169062000c25565b9190600183016000908282528060205260408220541560001462000db1578454946801000000000000000086101562000d9d576001860180825586101562000d8957836040949596828552602085200155549382526020522055600190565b634e487b7160e01b83526032600452602483fd5b634e487b7160e01b83526041600452602483fd5b5092505056fe608060408181526004908136101561001657600080fd5b600092833560e01c90816301ffc9a7146113db5750806306fdde0314611301578063095ea7b3146112d757806318160ddd146112b857806323b872dd14611201578063248a9ca3146111d65780632e2850511461119b5780632f2ff15d146110e1578063313ce567146110c55780633644e515146110a857806336568abe146110165780633950935114610fda578063407c48b414610fb657806340c10f1914610cc657806354fd4d5014610c81578063586fc5b514610c625780636afdd85014610c38578063705e6a5b14610ab757806370a0823114610a805780637ecebe0014610a4857806384b0196e1461092c5780638e141c75146108f15780638eb66d6a146108d25780639010d07c1461089157806391d148541461084a57806395d89b411461075d578063a217fddf14610742578063a457c2d7146106ac578063a9059cbb1461067b578063ca15c87314610653578063d505accf1461049d578063d547741f14610460578063dd62ed3e1461042b578063fadd1a1b146103ec5763ff740c31146101a557600080fd5b346103e8576020806003193601126103e4578235927f027f9f680a0c6704fd9796b55c67fe885252243966ecb05a88f3e7873c845d9a80865260098352838620338752835260ff84872054161561022f575050907fed4079ad973dc05ae698be821fb6958dc4edd78aa21dd6a9f8552e46037bacfd9183600b54918351928352820152a1600b5580f35b83908661023b33611a51565b9183519061024882611696565b604282528682019260603685378251156103d157603084538251906001918210156103be5790607860218501536041915b818311610353575050506103245760486102f793859361030693610320975196879376020b1b1b2b9b9a1b7b73a3937b61d1030b1b1b7bab73a1604d1b8c8601526102ce8c8251928391603789019101611449565b8401917001034b99036b4b9b9b4b733903937b6329607d1b603784015251809386840190611449565b010360288101855201836116b2565b5193849362461bcd60e51b8552840152602483019061146c565b0390fd5b606485878087519262461bcd60e51b845283015260248201526000805160206121cb8339815191526044820152fd5b909192600f811660108110156103ab576f181899199a1a9b1b9c1cb0b131b232b360811b901a6103838587611a2a565b53881c92801561039857600019019190610279565b634e487b7160e01b825260118952602482fd5b634e487b7160e01b835260328a52602483fd5b634e487b7160e01b815260328852602490fd5b634e487b7160e01b815260328752602490fd5b8380fd5b8280fd5b838234610427578160031936011261042757602090517fbd4c1461ef59750b24719a44d7e2a7948c57fd12c98e333541b7ea7b61f07cb78152f35b5080fd5b83823461042757806003193601126104275760209061045961044b611491565b6104536114ac565b9061216e565b9051908152f35b50346103e857806003193601126103e85761049a913561049560016104836114ac565b938387526009602052862001546114c2565b6116d4565b80f35b509190346104275760e0366003190112610427576104b9611491565b6104c16114ac565b906044359260643560843560ff8116810361064f5781421161060c5760018060a01b0390818516928389526007602052898920908154916001830190558a519060208201927f6e71edae12b1b97f4d1f60370fef10105fa2faae0126114a169c64845d6126c98452868d840152858a1660608401528a608084015260a083015260c082015260c0815260e0810181811067ffffffffffffffff8211176105f9578b525190206105a49161059c91610576611cf7565b908c519161190160f01b83526002830152602282015260c43591604260a4359220611c68565b919091611b4e565b16036105b6575061049a939450611928565b606490602087519162461bcd60e51b8352820152601e60248201527f45524332305065726d69743a20696e76616c6964207369676e617475726500006044820152fd5b634e487b7160e01b8b526041875260248bfd5b875162461bcd60e51b8152602081850152601d60248201527f45524332305065726d69743a206578706972656420646561646c696e650000006044820152606490fd5b8680fd5b5090346103e85760203660031901126103e8576020928291358152600a845220549051908152f35b8382346104275780600319360112610427576020906106a561069b611491565b60243590336117ba565b5160018152f35b50913461073f578260031936011261073f57506106c7611491565b90602435906106d6833361216e565b908282106106ee576020856106a58585038733611928565b608490602086519162461bcd60e51b8352820152602560248201527f45524332303a2064656372656173656420616c6c6f77616e63652062656c6f77604482015264207a65726f60d81b6064820152fd5b80fd5b83823461042757816003193601126104275751908152602090f35b50346103e857826003193601126103e857805183819490845461077f8161175d565b918285526020966001928884821691826000146108205750506001146107c5575b85886107c1896107b2848a03856116b2565b5192828493845283019061146c565b0390f35b815286935091907f8a35acfbc15ff81a39ae7d344fd709f28e8600b4aa8c65c6b64bfe7fe36bd19b5b82841061080857505050820101816107b26107c1386107a0565b8054848a0186015288955087949093019281016107ee565b60ff19168882015294151560051b870190940194508593506107b292506107c191503890506107a0565b5090346103e857816003193601126103e8578160209360ff9261086b6114ac565b90358252600986528282206001600160a01b039091168252855220549151911615158152f35b5090346103e857816003193601126103e8576020926108bc91358152600a8452826024359120611fdc565b905491519160018060a01b039160031b1c168152f35b838234610427578160031936011261042757602090600b549051908152f35b838234610427578160031936011261042757602090517f027f9f680a0c6704fd9796b55c67fe885252243966ecb05a88f3e7873c845d9a8152f35b50346103e857826003193601126103e8576109667f0000000000000000000000000000000000000000000000000000000000000000611e22565b926109907f0000000000000000000000000000000000000000000000000000000000000000611f1f565b908251926020928385019585871067ffffffffffffffff881117610a35575092806109eb8388966109de998b9996528686528151998a99600f60f81b8b5260e0868c015260e08b019061146c565b91898303908a015261146c565b924660608801523060808801528460a088015286840360c088015251928381520193925b828110610a1e57505050500390f35b835185528695509381019392810192600101610a0f565b634e487b7160e01b845260419052602483fd5b8382346104275760203660031901126104275760209181906001600160a01b03610a70611491565b1681526007845220549051908152f35b8382346104275760203660031901126104275760209181906001600160a01b03610aa8611491565b16815280845220549051908152f35b50346103e857602090816003193601126103e457823592831515809403610c34577fbd4c1461ef59750b24719a44d7e2a7948c57fd12c98e333541b7ea7b61f07cb780865260098452828620338752845260ff838720541615610b4f575050907f383d8f27281deff0ab982f76ad2feac76f0cb5d922008a4642d8765c748591329151838152a160ff8019600d5416911617600d5580f35b85610b5c93929333611a51565b91835190610b6982611696565b604282528682019260603685378251156103d157603084538251906001918210156103be5790607860218501536041915b818311610bef575050506103245760486102f793859361030693610320975196879376020b1b1b2b9b9a1b7b73a3937b61d1030b1b1b7bab73a1604d1b8c8601526102ce8c8251928391603789019101611449565b909192600f811660108110156103ab576f181899199a1a9b1b9c1cb0b131b232b360811b901a610c1f8587611a2a565b53881c92801561039857600019019190610b9a565b8480fd5b838234610427578160031936011261042757602090516e22d473030f116ddee9f6b43ac78ba38152f35b838234610427578160031936011261042757602090600c549051908152f35b83823461042757816003193601126104275780516107c191610ca282611664565b60058252640312e302e360dc1b60208301525191829160208352602083019061146c565b5090346103e857816003193601126103e857610ce0611491565b906024928335917f573321b8a13c75b2702bc4b0ad9afaae98bf6985285411964a564e68bf6da1c99384875260209460098652838820338952865260ff848920541615610e315750600c5480420390428211610e1f57600b54808302928304149042141715610e0d57808511610df2575042600c556001600160a01b0316948515610db257505091818593610d987fddf252ad1be2c89b69c2b068fc378daa952ba7f163c4a11628f55a4df523b3ef94600254611797565b60025585855284835280852082815401905551908152a380f35b601f9085606494519362461bcd60e51b85528401528201527f45524332303a206d696e7420746f20746865207a65726f2061646472657373006044820152fd5b828588604493875193635bdd08f560e01b8552840152820152fd5b634e487b7160e01b8852601183528688fd5b634e487b7160e01b8952601184528789fd5b82878588938b610e4033611a51565b91835190610e4d82611696565b60428252878201926060368537825115610fa45760308453825190600191821015610f925790607860218501536041915b818311610f2957505050610efb57604861032095938593610ee393610ed4975197889376020b1b1b2b9b9a1b7b73a3937b61d1030b1b1b7bab73a1604d1b8d8601526102ce8d8251928391603789019101611449565b010360288101865201846116b2565b5194859462461bcd60e51b865285015283019061146c565b60648688878188519362461bcd60e51b85528401528201526000805160206121cb8339815191526044820152fd5b909192600f81166010811015610f80576f181899199a1a9b1b9c1cb0b131b232b360811b901a610f598587611a2a565b53891c928015610f6e57600019019190610e7e565b634e487b7160e01b825260118a528882fd5b634e487b7160e01b835260328b528983fd5b634e487b7160e01b8152603289528790fd5b634e487b7160e01b8152603288528690fd5b83823461042757816003193601126104275760209060ff600d541690519015158152f35b8382346104275780600319360112610427576020906106a5610ffa611491565b61100f60243561100a833361216e565b611797565b9033611928565b509190346104275782600319360112610427576110316114ac565b90336001600160a01b0383160361104d579061049a91356116d4565b608490602085519162461bcd60e51b8352820152602f60248201527f416363657373436f6e74726f6c3a2063616e206f6e6c792072656e6f756e636560448201526e103937b632b9903337b91039b2b63360891b6064820152fd5b838234610427578160031936011261042757602090610459611cf7565b8382346104275781600319360112610427576020905160128152f35b50346103e857806003193601126103e85761114e913590600a6111026114ac565b928086526020906009825261111c600185892001546114c2565b808752600982528387206001600160a01b039095168088529482528387205460ff1615611152575b8652528320611ff4565b5080f35b808752600982528387208588528252838720805460ff191660011790553385827f2f8788117e7eff1d82e926ec794901d17c78024a50270940304540a733656f0d8a80a4611144565b838234610427578160031936011261042757602090517f573321b8a13c75b2702bc4b0ad9afaae98bf6985285411964a564e68bf6da1c98152f35b5090346103e85760203660031901126103e85781602093600192358152600985522001549051908152f35b50913461073f57606036600319011261073f575061121d611491565b6112256114ac565b9060443592611234338361216e565b906001820161124c575b6020866106a58787876117ba565b848210611275575091839161126a602096956106a595033383611928565b91939481935061123e565b606490602087519162461bcd60e51b8352820152601d60248201527f45524332303a20696e73756666696369656e7420616c6c6f77616e63650000006044820152fd5b8382346104275781600319360112610427576020906002549051908152f35b8382346104275780600319360112610427576020906106a56112f7611491565b6024359033611928565b50823461073f578060031936011261073f5781519182826003546113248161175d565b908184526020956001918783821691826000146113b4575050600114611358575b5050506107c192916107b29103856116b2565b9190869350600383527fc2575a0e9e593c00f959f8c92f12db2869c3395a3b0502d05e2516446f71f85b5b82841061139c57505050820101816107b26107c1611345565b8054848a018601528895508794909301928101611383565b60ff19168782015293151560051b860190930193508492506107b291506107c19050611345565b849084346103e85760203660031901126103e8573563ffffffff60e01b81168091036103e85760209250635a05180f60e01b811490811561141e575b5015158152f35b637965db0b60e01b811491508115611438575b5083611417565b6301ffc9a760e01b14905083611431565b60005b83811061145c5750506000910152565b818101518382015260200161144c565b9060209161148581518092818552858086019101611449565b601f01601f1916010190565b600435906001600160a01b03821682036114a757565b600080fd5b602435906001600160a01b03821682036114a757565b60009080825260209060098252604092838120338252835260ff8482205416156114ec5750505050565b6114f533611a51565b9184519061150282611696565b6042825284820192606036853782511561165057603084538251906001918210156116505790607860218501536041915b8183116115e2575050506115b257604861032093869361159693611587985198899376020b1b1b2b9b9a1b7b73a3937b61d1030b1b1b7bab73a1604d1b8a8601526102ce815180928c603789019101611449565b010360288101875201856116b2565b5192839262461bcd60e51b84526004840152602483019061146c565b60648486519062461bcd60e51b825280600483015260248201526000805160206121cb8339815191526044820152fd5b909192600f8116601081101561163c576f181899199a1a9b1b9c1cb0b131b232b360811b901a6116128587611a2a565b5360041c92801561162857600019019190611533565b634e487b7160e01b82526011600452602482fd5b634e487b7160e01b83526032600452602483fd5b634e487b7160e01b81526032600452602490fd5b6040810190811067ffffffffffffffff82111761168057604052565b634e487b7160e01b600052604160045260246000fd5b6080810190811067ffffffffffffffff82111761168057604052565b90601f8019910116810190811067ffffffffffffffff82111761168057604052565b9060406117129260009080825260096020528282209360018060a01b03169384835260205260ff8383205416611715575b8152600a6020522061207e565b50565b808252600960205282822084835260205282822060ff1981541690553384827ff6391f5c32d9c69d2a47ea670b442974b53935d1edc7fd64eb21e047a839171b8580a4611705565b90600182811c9216801561178d575b602083101461177757565b634e487b7160e01b600052602260045260246000fd5b91607f169161176c565b919082018092116117a457565b634e487b7160e01b600052601160045260246000fd5b6001600160a01b039081169182156118d557169182156118845760008281528060205260408120549180831061183057604082827fddf252ad1be2c89b69c2b068fc378daa952ba7f163c4a11628f55a4df523b3ef958760209652828652038282205586815220818154019055604051908152a3565b60405162461bcd60e51b815260206004820152602660248201527f45524332303a207472616e7366657220616d6f756e7420657863656564732062604482015265616c616e636560d01b6064820152608490fd5b60405162461bcd60e51b815260206004820152602360248201527f45524332303a207472616e7366657220746f20746865207a65726f206164647260448201526265737360e81b6064820152608490fd5b60405162461bcd60e51b815260206004820152602560248201527f45524332303a207472616e736665722066726f6d20746865207a65726f206164604482015264647265737360d81b6064820152608490fd5b6001600160a01b039081169182156119d957169182156119895760207f8c5be1e5ebec7d5bd14f71427d1e84f3dd0314c0f7b2291e5b200ac8c7c3b925918360005260018252604060002085600052825280604060002055604051908152a3565b60405162461bcd60e51b815260206004820152602260248201527f45524332303a20617070726f766520746f20746865207a65726f206164647265604482015261737360f01b6064820152608490fd5b60405162461bcd60e51b8152602060048201526024808201527f45524332303a20617070726f76652066726f6d20746865207a65726f206164646044820152637265737360e01b6064820152608490fd5b908151811015611a3b570160200190565b634e487b7160e01b600052603260045260246000fd5b604051906060820182811067ffffffffffffffff82111761168057604052602a8252602082016040368237825115611a3b57603090538151600190811015611a3b57607860218401536029905b808211611ae0575050611aae5790565b606460405162461bcd60e51b815260206004820152602060248201526000805160206121cb8339815191526044820152fd5b9091600f81166010811015611b39576f181899199a1a9b1b9c1cb0b131b232b360811b901a611b0f8486611a2a565b5360041c918015611b24576000190190611a9e565b60246000634e487b7160e01b81526011600452fd5b60246000634e487b7160e01b81526032600452fd5b6005811015611c525780611b5f5750565b60018103611bac5760405162461bcd60e51b815260206004820152601860248201527f45434453413a20696e76616c6964207369676e617475726500000000000000006044820152606490fd5b60028103611bf95760405162461bcd60e51b815260206004820152601f60248201527f45434453413a20696e76616c6964207369676e6174757265206c656e677468006044820152606490fd5b600314611c0257565b60405162461bcd60e51b815260206004820152602260248201527f45434453413a20696e76616c6964207369676e6174757265202773272076616c604482015261756560f01b6064820152608490fd5b634e487b7160e01b600052602160045260246000fd5b9291907f7fffffffffffffffffffffffffffffff5d576e7357a4501ddfe92f46681b20a08311611ceb5791608094939160ff602094604051948552168484015260408301526060820152600093849182805260015afa15611cde5781516001600160a01b03811615611cd8579190565b50600190565b50604051903d90823e3d90fd5b50505050600090600390565b307f00000000000000000000000000000000000000000000000000000000000000006001600160a01b03161480611df9575b15611d52577f000000000000000000000000000000000000000000000000000000000000000090565b60405160208101907f8b73c3c69bb8fe3d512ecc4cf759cc79239f7b179b0ffacaa9a75d522b39400f82527f000000000000000000000000000000000000000000000000000000000000000060408201527f000000000000000000000000000000000000000000000000000000000000000060608201524660808201523060a082015260a0815260c0810181811067ffffffffffffffff8211176116805760405251902090565b507f00000000000000000000000000000000000000000000000000000000000000004614611d29565b60ff8114611e605760ff811690601f8211611e4e5760405191611e4483611664565b8252602082015290565b604051632cd44ac360e21b8152600490fd5b50604051600554816000611e738361175d565b808352602093600190818116908115611eff5750600114611ea0575b5050611e9d925003826116b2565b90565b9093915060056000527f036b6384b5eca791c62761152d0c79bb0604c104a5fb6f4eb0703f3154bb3db0936000915b818310611ee7575050611e9d93508201013880611e8f565b85548784018501529485019486945091830191611ecf565b915050611e9d94925060ff191682840152151560051b8201013880611e8f565b60ff8114611f415760ff811690601f8211611e4e5760405191611e4483611664565b50604051600654816000611f548361175d565b808352602093600190818116908115611eff5750600114611f7d575050611e9d925003826116b2565b9093915060066000527ff652222313e28459528d920b65115c16c04f3efc82aaedc97be59f3f377c0d3f936000915b818310611fc4575050611e9d93508201013880611e8f565b85548784018501529485019486945091830191611fac565b8054821015611a3b5760005260206000200190600090565b919060018301600090828252806020526040822054156000146120785784549468010000000000000000861015612064578361205461203d886001604098999a01855584611fdc565b819391549060031b91821b91600019901b19161790565b9055549382526020522055600190565b634e487b7160e01b83526041600452602483fd5b50925050565b9060018201906000928184528260205260408420549081151560001461216757600019918083018181116121535782549084820191821161213f5780820361210a575b505050805480156120f6578201916120d98383611fdc565b909182549160031b1b191690555582526020526040812055600190565b634e487b7160e01b86526031600452602486fd5b61212a61211a61203d9386611fdc565b90549060031b1c92839286611fdc565b905586528460205260408620553880806120c1565b634e487b7160e01b88526011600452602488fd5b634e487b7160e01b87526011600452602487fd5b5050505090565b6001600160a01b0391821691906e22d473030f116ddee9f6b43ac78ba38314806121be575b6121b55716600052600160205260406000209060005260205260406000205490565b50505060001990565b5060ff600d541661219356fe537472696e67733a20686578206c656e67746820696e73756666696369656e74a26469706673582212209b90cd3c3d1c2a975ac00e9ebec9f458de2a22dfb52bf7894bf18c1e79113cc664736f6c634300081500332f8788117e7eff1d82e926ec794901d17c78024a50270940304540a733656f0dec8156718a8372b1db44bb411437d0870f3e3790d4a08526d024ce1b0b668f6b953e6113870cd26d8364d55096ba7b5671bc963ed99958a5e20ba9400d063705573321b8a13c75b2702bc4b0ad9afaae98bf6985285411964a564e68bf6da1c9",
        "linkReferences": {}
    },
    "methodIdentifiers": {
        "CAP_MANAGER_ROLE()": "8e141c75",
        "DEFAULT_ADMIN_ROLE()": "a217fddf",
        "DOMAIN_SEPARATOR()": "3644e515",
        "EMISSION_ROLE()": "2e285051",
        "PERMIT2()": "6afdd850",
        "PERMIT2_REVOKER_ROLE()": "fadd1a1b",
        "allowance(address,address)": "dd62ed3e",
        "approve(address,uint256)": "095ea7b3",
        "balanceOf(address)": "70a08231",
        "decimals()": "313ce567",
        "decreaseAllowance(address,uint256)": "a457c2d7",
        "eip712Domain()": "84b0196e",
        "getRoleAdmin(bytes32)": "248a9ca3",
        "getRoleMember(bytes32,uint256)": "9010d07c",
        "getRoleMemberCount(bytes32)": "ca15c873",
        "grantRole(bytes32,address)": "2f2ff15d",
        "hasRole(bytes32,address)": "91d14854",
        "increaseAllowance(address,uint256)": "39509351",
        "lastMint()": "586fc5b5",
        "mint(address,uint256)": "40c10f19",
        "mintPerSecondCap()": "8eb66d6a",
        "name()": "06fdde03",
        "nonces(address)": "7ecebe00",
        "permit(address,address,uint256,uint256,uint8,bytes32,bytes32)": "d505accf",
        "permit2Enabled()": "407c48b4",
        "renounceRole(bytes32,address)": "36568abe",
        "revokeRole(bytes32,address)": "d547741f",
        "supportsInterface(bytes4)": "01ffc9a7",
        "symbol()": "95d89b41",
        "totalSupply()": "18160ddd",
        "transfer(address,uint256)": "a9059cbb",
        "transferFrom(address,address,uint256)": "23b872dd",
        "updateMintCap(uint256)": "ff740c31",
        "updatePermit2Allowance(bool)": "705e6a5b",
        "version()": "54fd4d50"
    },
    "id": 67
}