{
    "abi": [
        {
            "type": "constructor",
            "inputs": [],
            "stateMutability": "nonpayable"
        },
        {
            "type": "function",
            "name": "acceptOwnership",
            "inputs": [],
            "outputs": [],
            "stateMutability": "nonpayable"
        },
        {
            "type": "function",
            "name": "batchDistribute",
            "inputs": [
                {
                    "name": "recipients",
                    "type": "address[]",
                    "internalType": "address[]"
                },
                {
                    "name": "amounts",
                    "type": "uint256[]",
                    "internalType": "uint256[]"
                }
            ],
            "outputs": [],
            "stateMutability": "nonpayable"
        },
        {
            "type": "function",
            "name": "cxt",
            "inputs": [],
            "outputs": [
                {
                    "name": "",
                    "type": "address",
                    "internalType": "contract IERC20"
                }
            ],
            "stateMutability": "view"
        },
        {
            "type": "function",
            "name": "initialize",
            "inputs": [],
            "outputs": [],
            "stateMutability": "nonpayable"
        },
        {
            "type": "function",
            "name": "owner",
            "inputs": [],
            "outputs": [
                {
                    "name": "",
                    "type": "address",
                    "internalType": "address"
                }
            ],
            "stateMutability": "view"
        },
        {
            "type": "function",
            "name": "pendingOwner",
            "inputs": [],
            "outputs": [
                {
                    "name": "",
                    "type": "address",
                    "internalType": "address"
                }
            ],
            "stateMutability": "view"
        },
        {
            "type": "function",
            "name": "renounceOwnership",
            "inputs": [],
            "outputs": [],
            "stateMutability": "nonpayable"
        },
        {
            "type": "function",
            "name": "setToken",
            "inputs": [
                {
                    "name": "_cxt",
                    "type": "address",
                    "internalType": "address"
                }
            ],
            "outputs": [],
            "stateMutability": "nonpayable"
        },
        {
            "type": "function",
            "name": "transferOwnership",
            "inputs": [
                {
                    "name": "newOwner",
                    "type": "address",
                    "internalType": "address"
                }
            ],
            "outputs": [],
            "stateMutability": "nonpayable"
        },
        {
            "type": "event",
            "name": "Initialized",
            "inputs": [
                {
                    "name": "version",
                    "type": "uint8",
                    "indexed": false,
                    "internalType": "uint8"
                }
            ],
            "anonymous": false
        },
        {
            "type": "event",
            "name": "OwnershipTransferStarted",
            "inputs": [
                {
                    "name": "previousOwner",
                    "type": "address",
                    "indexed": true,
                    "internalType": "address"
                },
                {
                    "name": "newOwner",
                    "type": "address",
                    "indexed": true,
                    "internalType": "address"
                }
            ],
            "anonymous": false
        },
        {
            "type": "event",
            "name": "OwnershipTransferred",
            "inputs": [
                {
                    "name": "previousOwner",
                    "type": "address",
                    "indexed": true,
                    "internalType": "address"
                },
                {
                    "name": "newOwner",
                    "type": "address",
                    "indexed": true,
                    "internalType": "address"
                }
            ],
            "anonymous": false
        }
    ],
    "bytecode": {
        "object": "0x608080604052346100c1576000549060ff8260081c1661006f575060ff80821603610034575b60405161098e90816100c78239f35b60ff90811916176000557f7f26b83ff96e1f2b6a682f133852f6798a09c465da95921460cefb3847402498602060405160ff8152a138610025565b62461bcd60e51b815260206004820152602760248201527f496e697469616c697a61626c653a20636f6e747261637420697320696e697469604482015266616c697a696e6760c81b6064820152608490fd5b600080fdfe60406080815260048036101561001457600080fd5b600091823560e01c908163144fa6d71461066d5781636611833714610644578163715018a6146105da57816379ba5097146105525781638129fc1c1461041f5781638da5cb5b146103f6578163ad8bc26b14610120578163e30c3978146100f7575063f2fde38b1461008557600080fd5b346100f35760203660031901126100f357356001600160a01b03818116918290036100ef576100b26107a6565b606580546001600160a01b03191683179055603354167f38d16b8cac22d99fc7c124b9cd0de2d3fa1faef420bfe791d8c362d765e227008380a380f35b8280fd5b5080fd5b8390346100f357816003193601126100f35760655490516001600160a01b039091168152602090f35b9050346100ef57806003193601126100ef5767ffffffffffffffff9180358381116103f257610152903690830161071a565b60249391939485358181116103ee5761016e903690860161071a565b6101799691966107a6565b808403610386578897985b84811061018f578880f35b6097546001600160a01b039081166101a883888761085e565b3591821680920361032a578a8c6101c085878e61085e565b358a5194602086019263a9059cbb60e01b84528601526044850152604484526080840193808510898611176103745760c081018581108a821117610362578b52602085527f5361666545524332303a206c6f772d6c6576656c2063616c6c206661696c656460a082015251829182855af1903d15610352573d87811161034057895190601f8101601f19908116603f011682018981118382101761032e578b5281529b9c9b610278939290913d8f602085013e610884565b8051908115918215610307575b5050156102b25760001981146102a057600101989798610184565b634e487b7160e01b8a5260118752888afd5b855162461bcd60e51b8152602081890152602a818b01527f5361666545524332303a204552433230206f7065726174696f6e20646964206e6044820152691bdd081cdd58d8d9595960b21b6064820152608490fd5b819250906020918101031261032a5760200151801515810361032a573880610285565b8a80fd5b634e487b7160e01b8f5260418d528f8ffd5b634e487b7160e01b8d5260418b528d8dfd5b610278929160609d9c9d91610884565b634e487b7160e01b845260418d528f84fd5b634e487b7160e01b835260418c528e83fd5b845162461bcd60e51b81526020818801526039818a01527f436f76616c656e744d6967726174696f6e3a20726563697069656e747320616e60448201527f6420616d6f756e7473206c656e677468206d69736d61746368000000000000006064820152608490fd5b8780fd5b8480fd5b8390346100f357816003193601126100f35760335490516001600160a01b039091168152602090f35b919050346100ef57826003193601126100ef57825460ff8160081c161591828093610545575b801561052e575b156104d4575060ff1981166001178455816104c3575b5061047c60ff845460081c16610477816107fe565b6107fe565b61048533610750565b61048d575080f35b60207f7f26b83ff96e1f2b6a682f133852f6798a09c465da95921460cefb38474024989161ff001984541684555160018152a180f35b61ffff191661010117835538610462565b608490602085519162461bcd60e51b8352820152602e60248201527f496e697469616c697a61626c653a20636f6e747261637420697320616c72656160448201526d191e481a5b9a5d1a585b1a5e995960921b6064820152fd5b50303b15801561044c5750600160ff83161461044c565b50600160ff831610610445565b9050346100ef57826003193601126100ef57606554336001600160a01b0390911603610585578261058233610750565b80f35b906020608492519162461bcd60e51b8352820152602960248201527f4f776e61626c6532537465703a2063616c6c6572206973206e6f7420746865206044820152683732bb9037bbb732b960b91b6064820152fd5b83346106415780600319360112610641576105f36107a6565b606580546001600160a01b031990811690915560338054918216905581906001600160a01b03167f8be0079c531659141344cd1fd0a4f28419497f9722a3daafe3b4186f6b6457e08280a380f35b80fd5b8390346100f357816003193601126100f35760975490516001600160a01b039091168152602090f35b919050346100ef5760203660031901126100ef5780356001600160a01b03811692908390036107165761069e6107a6565b82156106c15750506bffffffffffffffffffffffff60a01b609754161760975580f35b906020608492519162461bcd60e51b8352820152602960248201527f436f76616c656e744d6967726174696f6e3a20616464726573732063616e6e6f60448201526874206265207a65726f60b81b6064820152fd5b8380fd5b9181601f8401121561074b5782359167ffffffffffffffff831161074b576020808501948460051b01011161074b57565b600080fd5b6bffffffffffffffffffffffff60a01b90816065541660655560335460018060a01b038092168093821617603355167f8be0079c531659141344cd1fd0a4f28419497f9722a3daafe3b4186f6b6457e0600080a3565b6033546001600160a01b031633036107ba57565b606460405162461bcd60e51b815260206004820152602060248201527f4f776e61626c653a2063616c6c6572206973206e6f7420746865206f776e65726044820152fd5b1561080557565b60405162461bcd60e51b815260206004820152602b60248201527f496e697469616c697a61626c653a20636f6e7472616374206973206e6f74206960448201526a6e697469616c697a696e6760a81b6064820152608490fd5b919081101561086e5760051b0190565b634e487b7160e01b600052603260045260246000fd5b919290156108e65750815115610898575090565b3b156108a15790565b60405162461bcd60e51b815260206004820152601d60248201527f416464726573733a2063616c6c20746f206e6f6e2d636f6e74726163740000006044820152606490fd5b8251909150156108f95750805190602001fd5b6040519062461bcd60e51b82528160208060048301528251908160248401526000935b82851061093f575050604492506000838284010152601f80199101168101030190fd5b848101820151868601604401529381019385935061091c56fea26469706673582212207b375294a9a28588d237f1ed8cb28e3fcbbfaaf514de8bccef1ef614fa60b3b764736f6c63430008150033",
        "linkReferences": {}
    },
    "methodIdentifiers": {
        "acceptOwnership()": "79ba5097",
        "batchDistribute(address[],uint256[])": "ad8bc26b",
        "cxt()": "66118337",
        "initialize()": "8129fc1c",
        "owner()": "8da5cb5b",
        "pendingOwner()": "e30c3978",
        "renounceOwnership()": "715018a6",
        "setToken(address)": "144fa6d7",
        "transferOwnership(address)": "f2fde38b"
    },
    "id": 66
}