{
    "abi": [
        {
            "type": "constructor",
            "inputs": [
                {
                    "name": "migration_",
                    "type": "address",
                    "internalType": "address"
                },
                {
                    "name": "treasury_",
                    "type": "address",
                    "internalType": "address"
                }
            ],
            "stateMutability": "nonpayable"
        },
        {
            "type": "function",
            "name": "INTEREST_PER_YEAR_LOG2",
            "inputs": [],
            "outputs": [
                {
                    "name": "",
                    "type": "uint256",
                    "internalType": "uint256"
                }
            ],
            "stateMutability": "view"
        },
        {
            "type": "function",
            "name": "START_SUPPLY",
            "inputs": [],
            "outputs": [
                {
                    "name": "",
                    "type": "uint256",
                    "internalType": "uint256"
                }
            ],
            "stateMutability": "view"
        },
        {
            "type": "function",
            "name": "acceptOwnership",
            "inputs": [],
            "outputs": [],
            "stateMutability": "nonpayable"
        },
        {
            "type": "function",
            "name": "inflatedSupplyAfter",
            "inputs": [
                {
                    "name": "timeElapsed",
                    "type": "uint256",
                    "internalType": "uint256"
                }
            ],
            "outputs": [
                {
                    "name": "supply",
                    "type": "uint256",
                    "internalType": "uint256"
                }
            ],
            "stateMutability": "pure"
        },
        {
            "type": "function",
            "name": "initialize",
            "inputs": [
                {
                    "name": "token_",
                    "type": "address",
                    "internalType": "address"
                },
                {
                    "name": "owner_",
                    "type": "address",
                    "internalType": "address"
                }
            ],
            "outputs": [],
            "stateMutability": "nonpayable"
        },
        {
            "type": "function",
            "name": "migration",
            "inputs": [],
            "outputs": [
                {
                    "name": "",
                    "type": "address",
                    "internalType": "address"
                }
            ],
            "stateMutability": "view"
        },
        {
            "type": "function",
            "name": "mint",
            "inputs": [],
            "outputs": [],
            "stateMutability": "nonpayable"
        },
        {
            "type": "function",
            "name": "owner",
            "inputs": [],
            "outputs": [
                {
                    "name": "",
                    "type": "address",
                    "internalType": "address"
                }
            ],
            "stateMutability": "view"
        },
        {
            "type": "function",
            "name": "pendingOwner",
            "inputs": [],
            "outputs": [
                {
                    "name": "",
                    "type": "address",
                    "internalType": "address"
                }
            ],
            "stateMutability": "view"
        },
        {
            "type": "function",
            "name": "renounceOwnership",
            "inputs": [],
            "outputs": [],
            "stateMutability": "nonpayable"
        },
        {
            "type": "function",
            "name": "startTimestamp",
            "inputs": [],
            "outputs": [
                {
                    "name": "",
                    "type": "uint256",
                    "internalType": "uint256"
                }
            ],
            "stateMutability": "view"
        },
        {
            "type": "function",
            "name": "token",
            "inputs": [],
            "outputs": [
                {
                    "name": "",
                    "type": "address",
                    "internalType": "contract ICovalentXToken"
                }
            ],
            "stateMutability": "view"
        },
        {
            "type": "function",
            "name": "transferOwnership",
            "inputs": [
                {
                    "name": "newOwner",
                    "type": "address",
                    "internalType": "address"
                }
            ],
            "outputs": [],
            "stateMutability": "nonpayable"
        },
        {
            "type": "function",
            "name": "treasury",
            "inputs": [],
            "outputs": [
                {
                    "name": "",
                    "type": "address",
                    "internalType": "address"
                }
            ],
            "stateMutability": "view"
        },
        {
            "type": "function",
            "name": "version",
            "inputs": [],
            "outputs": [
                {
                    "name": "",
                    "type": "string",
                    "internalType": "string"
                }
            ],
            "stateMutability": "pure"
        },
        {
            "type": "event",
            "name": "Initialized",
            "inputs": [
                {
                    "name": "version",
                    "type": "uint8",
                    "indexed": false,
                    "internalType": "uint8"
                }
            ],
            "anonymous": false
        },
        {
            "type": "event",
            "name": "OwnershipTransferStarted",
            "inputs": [
                {
                    "name": "previousOwner",
                    "type": "address",
                    "indexed": true,
                    "internalType": "address"
                },
                {
                    "name": "newOwner",
                    "type": "address",
                    "indexed": true,
                    "internalType": "address"
                }
            ],
            "anonymous": false
        },
        {
            "type": "event",
            "name": "OwnershipTransferred",
            "inputs": [
                {
                    "name": "previousOwner",
                    "type": "address",
                    "indexed": true,
                    "internalType": "address"
                },
                {
                    "name": "newOwner",
                    "type": "address",
                    "indexed": true,
                    "internalType": "address"
                }
            ],
            "anonymous": false
        },
        {
            "type": "event",
            "name": "TokenMint",
            "inputs": [
                {
                    "name": "amount",
                    "type": "uint256",
                    "indexed": false,
                    "internalType": "uint256"
                },
                {
                    "name": "caller",
                    "type": "address",
                    "indexed": false,
                    "internalType": "address"
                }
            ],
            "anonymous": false
        },
        {
            "type": "error",
            "name": "InvalidAddress",
            "inputs": []
        }
    ],
    "bytecode": {
        "object": "0x60e0346200018257620016c890601f38839003908101601f19168201906001600160401b0382118383101762000187578083916040958694855283398101031262000182576200005d602062000055836200019d565b92016200019d565b906001600160a01b038082161590811562000176575b5062000165573360805260a05260c05260005460ff8160081c16620001115760ff80821603620000d6575b50516115159081620001b38239608051816103fc015260a0518181816104b70152610879015260c0518181816103230152610be60152f35b60ff90811916176000557f7f26b83ff96e1f2b6a682f133852f6798a09c465da95921460cefb38474024986020825160ff8152a1386200009e565b815162461bcd60e51b815260206004820152602760248201527f496e697469616c697a61626c653a20636f6e747261637420697320696e697469604482015266616c697a696e6760c81b6064820152608490fd5b825163e6c4247b60e01b8152600490fd5b90508216153862000073565b600080fd5b634e487b7160e01b600052604160045260246000fd5b51906001600160a01b0382168203620001825756fe6040608081526004908136101561001557600080fd5b600091823560e01c9081631249c58b146108a85781631705a3bd1461086457816321daf0851461083d578163485cc9551461039357816354fd4d501461035257816361d027b31461030e578163715018a6146102a757816379ba50971461021a57816387b11034146101f3575080638da5cb5b146101cb578063e30c3978146101a3578063e6fd48bc14610185578063f2fde38b14610114578063f6908f7c146100f35763fc0c546a146100c857600080fd5b346100ef57816003193601126100ef5760975490516001600160a01b039091168152602090f35b5080fd5b50346100ef57816003193601126100ef576020905166fa12b884f1fd7a8152f35b82346101825760203660031901126101825761012e6108c1565b61013661097b565b606580546001600160a01b0319166001600160a01b039283169081179091556033549091167f38d16b8cac22d99fc7c124b9cd0de2d3fa1faef420bfe791d8c362d765e227008380a380f35b80fd5b50346100ef57816003193601126100ef576020906098549051908152f35b50346100ef57816003193601126100ef5760655490516001600160a01b039091168152602090f35b50346100ef57816003193601126100ef5760335490516001600160a01b039091168152602090f35b828434610182576020366003190112610182575061021360209235610c81565b9051908152f35b919050346102a357826003193601126102a357606554336001600160a01b039091160361024e578261024b33610925565b80f35b906020608492519162461bcd60e51b8352820152602960248201527f4f776e61626c6532537465703a2063616c6c6572206973206e6f7420746865206044820152683732bb9037bbb732b960b91b6064820152fd5b8280fd5b83346101825780600319360112610182576102c061097b565b606580546001600160a01b031990811690915560338054918216905581906001600160a01b03167f8be0079c531659141344cd1fd0a4f28419497f9722a3daafe3b4186f6b6457e08280a380f35b5050346100ef57816003193601126100ef57517f00000000000000000000000000000000000000000000000000000000000000006001600160a01b03168152602090f35b5050346100ef57816003193601126100ef57805161038f91610373826109d3565b60058252640312e302e360dc1b602083015251918291826108dc565b0390f35b9050346102a357816003193601126102a3576103ad6108c1565b602480356001600160a01b03818116949192908584036106805787549460ff8660081c161595868097610830575b8015610819575b156107c05760ff1981166001178a55866107af575b5033827f000000000000000000000000000000000000000000000000000000000000000016036107ab5781169586159081156107a2575b506107925761044c60ff895460081c1661044781610a27565b610a27565b61045533610925565b609780546001600160a01b031916871790554260985586516318160ddd60e01b81526020969087818681855afa908115610749578a91610765575b506b033b2e3c9fd0803ce80000000361075357875191636eb1769f60e11b835230858401527f0000000000000000000000000000000000000000000000000000000000000000169182848201528781604481855afa908115610749578a91610718575b506106b7578751908782019263095ea7b360e01b845284830152600019604483015260448252608082019267ffffffffffffffff92808510848611176106a5578b918291868d52610543876109d3565b8b87527f5361666545524332303a206c6f772d6c6576656c2063616c6c206661696c656460a0820152519082855af1903d15610696573d92831161068457906105ab9392918a519261059e8b601f19601f8401160185610a05565b83523d8c8b85013e610a87565b8051868115918215610660575b505090501561060b5750506105cc90610925565b6105d4578280f35b7f7f26b83ff96e1f2b6a682f133852f6798a09c465da95921460cefb38474024989161ff001984541684555160018152a138808280f35b855162461bcd60e51b8152918201859052602a908201527f5361666545524332303a204552433230206f7065726174696f6e20646964206e6044820152691bdd081cdd58d8d9595960b21b6064820152608490fd5b8380929350010312610680578501518015158103610680578086386105b8565b8780fd5b634e487b7160e01b8b5260418652848bfd5b906105ab939250606091610a87565b634e487b7160e01b8c5260418752858cfd5b875162461bcd60e51b81528085018890526036818501527f5361666545524332303a20617070726f76652066726f6d206e6f6e2d7a65726f60448201527520746f206e6f6e2d7a65726f20616c6c6f77616e636560501b6064820152608490fd5b90508781813d8311610742575b61072f8183610a05565b8101031261073e5751386104f3565b8980fd5b503d610725565b89513d8c823e3d90fd5b634e487b7160e01b8952600184528289fd5b90508781813d831161078b575b61077c8183610a05565b8101031261073e575138610490565b503d610772565b865163e6c4247b60e01b81528390fd5b9050153861042e565b8880fd5b61ffff1916610101178955386103f7565b885162461bcd60e51b8152602081870152602e818601527f496e697469616c697a61626c653a20636f6e747261637420697320616c72656160448201526d191e481a5b9a5d1a585b1a5e995960921b6064820152608490fd5b50303b1580156103e25750600160ff8216146103e2565b50600160ff8216106103db565b5050346100ef57816003193601126100ef57602090516b033b2e3c9fd0803ce80000008152f35b5050346100ef57816003193601126100ef57517f00000000000000000000000000000000000000000000000000000000000000006001600160a01b03168152602090f35b833461018257806003193601126101825761024b610b3f565b600435906001600160a01b03821682036108d757565b600080fd5b6020808252825181830181905290939260005b82811061091157505060409293506000838284010152601f8019910116010190565b8181018601518482016040015285016108ef565b6bffffffffffffffffffffffff60a01b90816065541660655560335460018060a01b038092168093821617603355167f8be0079c531659141344cd1fd0a4f28419497f9722a3daafe3b4186f6b6457e0600080a3565b6033546001600160a01b0316330361098f57565b606460405162461bcd60e51b815260206004820152602060248201527f4f776e61626c653a2063616c6c6572206973206e6f7420746865206f776e65726044820152fd5b6040810190811067ffffffffffffffff8211176109ef57604052565b634e487b7160e01b600052604160045260246000fd5b90601f8019910116810190811067ffffffffffffffff8211176109ef57604052565b15610a2e57565b60405162461bcd60e51b815260206004820152602b60248201527f496e697469616c697a61626c653a20636f6e7472616374206973206e6f74206960448201526a6e697469616c697a696e6760a81b6064820152608490fd5b91929015610ae95750815115610a9b575090565b3b15610aa45790565b60405162461bcd60e51b815260206004820152601d60248201527f416464726573733a2063616c6c20746f206e6f6e2d636f6e74726163740000006044820152606490fd5b825190915015610afc5750805190602001fd5b60405162461bcd60e51b8152908190610b1890600483016108dc565b0390fd5b91908203918211610b2957565b634e487b7160e01b600052601160045260246000fd5b609754604080516318160ddd60e01b81526001600160a01b039283169290602081600481875afa8015610c7657600090610c43575b610b929150610b8d610b8860985442610b1c565b610c81565b610b1c565b8015610c3d577fcae919fa60d0c9867c5b3e0a9529934bca78c09d353736e3327f74837594adc5838051838152336020820152a1833b156108d757604460009283855196879485936340c10f1960e01b85527f000000000000000000000000000000000000000000000000000000000000000016600485015260248401525af18015610c3257610c20575050565b67ffffffffffffffff82116109ef5752565b50513d6000823e3d90fd5b50505050565b6020823d8211610c6e575b81610c5b60209383610a05565b810103126101825750610b929051610b74565b3d9150610c4e565b83513d6000823e3d90fd5b66fa12b884f1fd7a9080820291820403610b2957670de0b6b3a764000090816301e1338060409204821b0482600160bf1b67ff0000000000000083166113ce575b66ff00000000000083166112c6575b65ff000000000083166111c6575b64ff0000000083166110ce575b63ff0000008316610fde575b62ff00008316610ef6575b61ff008316610e16575b60ff8316610d3f575b02911c60bf031c6b033b2e3c9fd0803ce800000090818102918183041490151715610b29570490565b60808316610e04575b838316610df2575b60208316610de0575b60108316610dce575b60088316610dbc575b60048316610daa575b60028316610d98575b6001831615610d16576801000000000000000102831c610d16565b6801000000000000000102831c610d7d565b6801000000000000000302831c610d74565b6801000000000000000602831c610d6b565b6801000000000000000b02831c610d62565b6801000000000000001602831c610d59565b6801000000000000002c02831c610d50565b6801000000000000005902831c610d48565b6180008316610ee4575b6140008316610ed2575b6120008316610ec0575b6110008316610eae575b6108008316610e9c575b6104008316610e8a575b6102008316610e78575b610100831615610d0d57680100000000000000b102831c610d0d565b6801000000000000016302831c610e5c565b680100000000000002c602831c610e52565b6801000000000000058c02831c610e48565b68010000000000000b1702831c610e3e565b6801000000000000162e02831c610e34565b68010000000000002c5d02831c610e2a565b680100000000000058b902831c610e20565b628000008316610fcc575b624000008316610fba575b622000008316610fa8575b621000008316610f96575b620800008316610f84575b620400008316610f72575b620200008316610f60575b62010000831615610d03576801000000000000b17202831c610d03565b680100000000000162e402831c610f43565b6801000000000002c5c802831c610f38565b68010000000000058b9102831c610f2d565b680100000000000b172102831c610f22565b68010000000000162e4302831c610f17565b680100000000002c5c8602831c610f0c565b6801000000000058b90c02831c610f01565b638000000083166110bc575b634000000083166110aa575b63200000008316611098575b63100000008316611086575b63080000008316611074575b63040000008316611062575b63020000008316611050575b6301000000831615610cf85768010000000000b1721802831c610cf8565b6801000000000162e43002831c611032565b68010000000002c5c86002831c611026565b680100000000058b90c002831c61101a565b6801000000000b17217f02831c61100e565b680100000000162e42ff02831c611002565b6801000000002c5c85fe02831c610ff6565b68010000000058b90bfc02831c610fea565b64800000000083166111b4575b64400000000083166111a2575b6420000000008316611190575b641000000000831661117e575b640800000000831661116c575b640400000000831661115a575b6402000000008316611148575b640100000000831615610cec57680100000000b17217f802831c610cec565b68010000000162e42ff102831c611129565b680100000002c5c85fe302831c61111c565b6801000000058b90bfce02831c61110f565b68010000000b17217fbb02831c611102565b6801000000162e42fff002831c6110f5565b68010000002c5c8601cc02831c6110e8565b680100000058b90c0b4902831c6110db565b6580000000000083166112b4575b6540000000000083166112a2575b652000000000008316611290575b65100000000000831661127e575b65080000000000831661126c575b65040000000000831661125a575b650200000000008316611248575b65010000000000831615610cdf576801000000b17218355102831c610cdf565b680100000162e430e5a202831c611228565b6801000002c5c863b73f02831c61121a565b68010000058b90cf1e6e02831c61120c565b680100000b1721bcfc9a02831c6111fe565b68010000162e43f4f83102831c6111f0565b680100002c5c89d5ec6d02831c6111e2565b6801000058b91b5bc9ae02831c6111d4565b668000000000000083166113bc575b664000000000000083166113aa575b66200000000000008316611398575b66100000000000008316611386575b66080000000000008316611374575b66040000000000008316611362575b66020000000000008316611350575b6601000000000000831615610cd15768010000b17255775c0402831c610cd1565b6801000162e525ee054702831c61132f565b68010002c5cc37da949202831c611320565b680100058ba01fb9f96d02831c611311565b6801000b175effdc76ba02831c611302565b680100162f3904051fa102831c6112f3565b6801002c605e2e8cec5002831c6112e4565b68010058c86da1c09ea202831c6112d5565b67800000000000000083166114cc575b67400000000000000083166114ba575b67200000000000000083166114a8575b6710000000000000008316611496575b6708000000000000008316611484575b6704000000000000008316611472575b6702000000000000008316611460575b670100000000000000831615610cc257680100b1afa5abcbed6102831c610cc2565b68010163da9fb33356d802831c61143e565b680102c9a3e778060ee702831c61142e565b6801059b0d31585743ae02831c61141e565b68010b5586cf9890f62a02831c61140e565b6801172b83c7d517adce02831c6113fe565b6801306fe0a31b7152df02831c6113ee565b5068016a09e667f3bcc909607f1b6113de56fea264697066735822122065b020a9b3699aa837a53b170b11783b0b34ad463e3870fbff10164443c3580e64736f6c63430008150033",
        "linkReferences": {}
    },
    "methodIdentifiers": {
        "INTEREST_PER_YEAR_LOG2()": "f6908f7c",
        "START_SUPPLY()": "21daf085",
        "acceptOwnership()": "79ba5097",
        "inflatedSupplyAfter(uint256)": "87b11034",
        "initialize(address,address)": "485cc955",
        "migration()": "1705a3bd",
        "mint()": "1249c58b",
        "owner()": "8da5cb5b",
        "pendingOwner()": "e30c3978",
        "renounceOwnership()": "715018a6",
        "startTimestamp()": "e6fd48bc",
        "token()": "fc0c546a",
        "transferOwnership(address)": "f2fde38b",
        "treasury()": "61d027b3",
        "version()": "54fd4d50"
    },
    "id": 68
}