{
    "abi": [
        {
            "type": "constructor",
            "inputs": [
                {
                    "name": "migration_",
                    "type": "address",
                    "internalType": "address"
                },
                {
                    "name": "treasury_",
                    "type": "address",
                    "internalType": "address"
                }
            ],
            "stateMutability": "nonpayable"
        },
        {
            "type": "function",
            "name": "INTEREST_PER_YEAR_LOG2",
            "inputs": [],
            "outputs": [
                {
                    "name": "",
                    "type": "uint256",
                    "internalType": "uint256"
                }
            ],
            "stateMutability": "view"
        },
        {
            "type": "function",
            "name": "START_SUPPLY",
            "inputs": [],
            "outputs": [
                {
                    "name": "",
                    "type": "uint256",
                    "internalType": "uint256"
                }
            ],
            "stateMutability": "view"
        },
        {
            "type": "function",
            "name": "acceptOwnership",
            "inputs": [],
            "outputs": [],
            "stateMutability": "nonpayable"
        },
        {
            "type": "function",
            "name": "inflatedSupplyAfter",
            "inputs": [
                {
                    "name": "timeElapsed",
                    "type": "uint256",
                    "internalType": "uint256"
                }
            ],
            "outputs": [
                {
                    "name": "supply",
                    "type": "uint256",
                    "internalType": "uint256"
                }
            ],
            "stateMutability": "pure"
        },
        {
            "type": "function",
            "name": "initialize",
            "inputs": [
                {
                    "name": "token_",
                    "type": "address",
                    "internalType": "address"
                },
                {
                    "name": "owner_",
                    "type": "address",
                    "internalType": "address"
                }
            ],
            "outputs": [],
            "stateMutability": "nonpayable"
        },
        {
            "type": "function",
            "name": "migration",
            "inputs": [],
            "outputs": [
                {
                    "name": "",
                    "type": "address",
                    "internalType": "address"
                }
            ],
            "stateMutability": "view"
        },
        {
            "type": "function",
            "name": "mint",
            "inputs": [],
            "outputs": [],
            "stateMutability": "nonpayable"
        },
        {
            "type": "function",
            "name": "owner",
            "inputs": [],
            "outputs": [
                {
                    "name": "",
                    "type": "address",
                    "internalType": "address"
                }
            ],
            "stateMutability": "view"
        },
        {
            "type": "function",
            "name": "pendingOwner",
            "inputs": [],
            "outputs": [
                {
                    "name": "",
                    "type": "address",
                    "internalType": "address"
                }
            ],
            "stateMutability": "view"
        },
        {
            "type": "function",
            "name": "renounceOwnership",
            "inputs": [],
            "outputs": [],
            "stateMutability": "nonpayable"
        },
        {
            "type": "function",
            "name": "startTimestamp",
            "inputs": [],
            "outputs": [
                {
                    "name": "",
                    "type": "uint256",
                    "internalType": "uint256"
                }
            ],
            "stateMutability": "view"
        },
        {
            "type": "function",
            "name": "token",
            "inputs": [],
            "outputs": [
                {
                    "name": "",
                    "type": "address",
                    "internalType": "contract ICovalentXToken"
                }
            ],
            "stateMutability": "view"
        },
        {
            "type": "function",
            "name": "transferOwnership",
            "inputs": [
                {
                    "name": "newOwner",
                    "type": "address",
                    "internalType": "address"
                }
            ],
            "outputs": [],
            "stateMutability": "nonpayable"
        },
        {
            "type": "function",
            "name": "treasury",
            "inputs": [],
            "outputs": [
                {
                    "name": "",
                    "type": "address",
                    "internalType": "address"
                }
            ],
            "stateMutability": "view"
        },
        {
            "type": "function",
            "name": "version",
            "inputs": [],
            "outputs": [
                {
                    "name": "",
                    "type": "string",
                    "internalType": "string"
                }
            ],
            "stateMutability": "pure"
        },
        {
            "type": "event",
            "name": "Initialized",
            "inputs": [
                {
                    "name": "version",
                    "type": "uint8",
                    "indexed": false,
                    "internalType": "uint8"
                }
            ],
            "anonymous": false
        },
        {
            "type": "event",
            "name": "OwnershipTransferStarted",
            "inputs": [
                {
                    "name": "previousOwner",
                    "type": "address",
                    "indexed": true,
                    "internalType": "address"
                },
                {
                    "name": "newOwner",
                    "type": "address",
                    "indexed": true,
                    "internalType": "address"
                }
            ],
            "anonymous": false
        },
        {
            "type": "event",
            "name": "OwnershipTransferred",
            "inputs": [
                {
                    "name": "previousOwner",
                    "type": "address",
                    "indexed": true,
                    "internalType": "address"
                },
                {
                    "name": "newOwner",
                    "type": "address",
                    "indexed": true,
                    "internalType": "address"
                }
            ],
            "anonymous": false
        },
        {
            "type": "event",
            "name": "TokenMint",
            "inputs": [
                {
                    "name": "amount",
                    "type": "uint256",
                    "indexed": false,
                    "internalType": "uint256"
                },
                {
                    "name": "caller",
                    "type": "address",
                    "indexed": false,
                    "internalType": "address"
                }
            ],
            "anonymous": false
        },
        {
            "type": "error",
            "name": "InvalidAddress",
            "inputs": []
        }
    ],
    "bytecode": {
        "object": "0x60e0346200018257620016ac90601f38839003908101601f19168201906001600160401b0382118383101762000187578083916040958694855283398101031262000182576200005d602062000055836200019d565b92016200019d565b906001600160a01b038082161590811562000176575b5062000165573360805260a05260c05260005460ff8160081c16620001115760ff80821603620000d6575b50516114f99081620001b38239608051816103fc015260a0518181816104950152610737015260c0518181816103230152610baf0152f35b60ff90811916176000557f7f26b83ff96e1f2b6a682f133852f6798a09c465da95921460cefb38474024986020825160ff8152a1386200009e565b815162461bcd60e51b815260206004820152602760248201527f496e697469616c697a61626c653a20636f6e747261637420697320696e697469604482015266616c697a696e6760c81b6064820152608490fd5b825163e6c4247b60e01b8152600490fd5b90508216153862000073565b600080fd5b634e487b7160e01b600052604160045260246000fd5b51906001600160a01b0382168203620001825756fe6040608081526004908136101561001557600080fd5b600091823560e01c9081631249c58b146107665781631705a3bd1461072257816321daf085146106fb578163485cc9551461039357816354fd4d501461035257816361d027b31461030e578163715018a6146102a757816379ba50971461021a57816387b11034146101f3575080638da5cb5b146101cb578063e30c3978146101a3578063e6fd48bc14610185578063f2fde38b14610114578063f6908f7c146100f35763fc0c546a146100c857600080fd5b346100ef57816003193601126100ef5760975490516001600160a01b039091168152602090f35b5080fd5b50346100ef57816003193601126100ef576020905166fa12b885f6d9988152f35b82346101825760203660031901126101825761012e61077f565b610136610839565b606580546001600160a01b0319166001600160a01b039283169081179091556033549091167f38d16b8cac22d99fc7c124b9cd0de2d3fa1faef420bfe791d8c362d765e227008380a380f35b80fd5b50346100ef57816003193601126100ef576020906098549051908152f35b50346100ef57816003193601126100ef5760655490516001600160a01b039091168152602090f35b50346100ef57816003193601126100ef5760335490516001600160a01b039091168152602090f35b828434610182576020366003190112610182575061021360209235610c65565b9051908152f35b919050346102a357826003193601126102a357606554336001600160a01b039091160361024e578261024b336107e3565b80f35b906020608492519162461bcd60e51b8352820152602960248201527f4f776e61626c6532537465703a2063616c6c6572206973206e6f7420746865206044820152683732bb9037bbb732b960b91b6064820152fd5b8280fd5b83346101825780600319360112610182576102c0610839565b606580546001600160a01b031990811690915560338054918216905581906001600160a01b03167f8be0079c531659141344cd1fd0a4f28419497f9722a3daafe3b4186f6b6457e08280a380f35b5050346100ef57816003193601126100ef57517f00000000000000000000000000000000000000000000000000000000000000006001600160a01b03168152602090f35b5050346100ef57816003193601126100ef57805161038f9161037382610891565b60058252640312e312e360dc1b6020830152519182918261079a565b0390f35b9050346102a357816003193601126102a3576103ad61077f565b6024918235906001600160a01b0390818316908184036106f75787549460ff8660081c1615958680976106ea575b80156106d3575b1561067a5760ff1981166001178a5586610669575b5033847f0000000000000000000000000000000000000000000000000000000000000000160361066557831691821590811561065c575b5061064e57609780546001600160a01b031916831790554260985586516318160ddd60e01b81526020969087818481875afa908115610606578a91610621575b506b033b2e3c9fd0803ce80000000361061057875193636eb1769f60e11b855230838601527f0000000000000000000000000000000000000000000000000000000000000000169384828201528781604481875afa908115610606578a916105d5575b506105745787519363095ea7b360e01b8886015281850152600019604485015260448452608084019184831067ffffffffffffffff8411176105635750508652610524929161051f916108e5565b6107e3565b61052c578280f35b7f7f26b83ff96e1f2b6a682f133852f6798a09c465da95921460cefb38474024989161ff001984541684555160018152a138808280f35b634e487b7160e01b8a526041905288fd5b875162461bcd60e51b81529182018790526036908201527f5361666545524332303a20617070726f76652066726f6d206e6f6e2d7a65726f60448201527520746f206e6f6e2d7a65726f20616c6c6f77616e636560501b6064820152608490fd5b90508781813d83116105ff575b6105ec81836108c3565b810103126105fb5751386104d1565b8980fd5b503d6105e2565b89513d8c823e3d90fd5b634e487b7160e01b89526001825288fd5b90508781813d8311610647575b61063881836108c3565b810103126105fb57513861046e565b503d61062e565b865163e6c4247b60e01b8152fd5b9050153861042e565b8880fd5b61ffff1916610101178955386103f7565b885162461bcd60e51b8152602081850152602e818a01527f496e697469616c697a61626c653a20636f6e747261637420697320616c72656160448201526d191e481a5b9a5d1a585b1a5e995960921b6064820152608490fd5b50303b1580156103e25750600160ff8216146103e2565b50600160ff8216106103db565b8780fd5b5050346100ef57816003193601126100ef57602090516b033b2e3c9fd0803ce80000008152f35b5050346100ef57816003193601126100ef57517f00000000000000000000000000000000000000000000000000000000000000006001600160a01b03168152602090f35b833461018257806003193601126101825761024b610ae1565b600435906001600160a01b038216820361079557565b600080fd5b6020808252825181830181905290939260005b8281106107cf57505060409293506000838284010152601f8019910116010190565b8181018601518482016040015285016107ad565b6bffffffffffffffffffffffff60a01b90816065541660655560335460018060a01b038092168093821617603355167f8be0079c531659141344cd1fd0a4f28419497f9722a3daafe3b4186f6b6457e0600080a3565b6033546001600160a01b0316330361084d57565b606460405162461bcd60e51b815260206004820152602060248201527f4f776e61626c653a2063616c6c6572206973206e6f7420746865206f776e65726044820152fd5b6040810190811067ffffffffffffffff8211176108ad57604052565b634e487b7160e01b600052604160045260246000fd5b90601f8019910116810190811067ffffffffffffffff8211176108ad57604052565b60018060a01b0316906040516108fa81610891565b6020928382527f5361666545524332303a206c6f772d6c6576656c2063616c6c206661696c6564848301526000808486829651910182855af13d15610a1f573d9167ffffffffffffffff8311610a0b57906109759392916040519261096888601f19601f84011601856108c3565b83523d868885013e610a29565b8051918215918483156109e7575b5050509050156109905750565b6084906040519062461bcd60e51b82526004820152602a60248201527f5361666545524332303a204552433230206f7065726174696f6e20646964206e6044820152691bdd081cdd58d8d9595960b21b6064820152fd5b9193818094500103126100ef57820151908115158203610182575080388084610983565b634e487b7160e01b85526041600452602485fd5b9061097592916060915b91929015610a8b5750815115610a3d575090565b3b15610a465790565b60405162461bcd60e51b815260206004820152601d60248201527f416464726573733a2063616c6c20746f206e6f6e2d636f6e74726163740000006044820152606490fd5b825190915015610a9e5750805190602001fd5b60405162461bcd60e51b8152908190610aba906004830161079a565b0390fd5b91908203918211610acb57565b634e487b7160e01b600052601160045260246000fd5b609754604080516318160ddd60e01b81526020926001600160a01b0316908381600481855afa8015610c5a57600090610c2b575b610b339150610b2e610b2960985442610abe565b610c65565b610abe565b918215610c25577fcae919fa60d0c9867c5b3e0a9529934bca78c09d353736e3327f74837594adc58180518581523387820152a1813b156107955780516340c10f1960e01b81523060048201526024810184905260008160448183875af18015610c1a57610bff575b505163a9059cbb60e01b938101939093527f00000000000000000000000000000000000000000000000000000000000000006001600160a01b03166024840152604480840192909252908252610bfd9190610bf86064836108c3565b6108e5565b565b9367ffffffffffffffff85116108ad57938152610bfd610b9c565b82513d6000823e3d90fd5b50505050565b8482813d8311610c53575b610c4081836108c3565b810103126101825750610b339051610b15565b503d610c36565b83513d6000823e3d90fd5b66fa12b885f6d9989080820291820403610acb57670de0b6b3a764000090816301e1338060409204821b0482600160bf1b67ff0000000000000083166113b2575b66ff00000000000083166112aa575b65ff000000000083166111aa575b64ff0000000083166110b2575b63ff0000008316610fc2575b62ff00008316610eda575b61ff008316610dfa575b60ff8316610d23575b02911c60bf031c6b033b2e3c9fd0803ce800000090818102918183041490151715610acb570490565b60808316610de8575b838316610dd6575b60208316610dc4575b60108316610db2575b60088316610da0575b60048316610d8e575b60028316610d7c575b6001831615610cfa576801000000000000000102831c610cfa565b6801000000000000000102831c610d61565b6801000000000000000302831c610d58565b6801000000000000000602831c610d4f565b6801000000000000000b02831c610d46565b6801000000000000001602831c610d3d565b6801000000000000002c02831c610d34565b6801000000000000005902831c610d2c565b6180008316610ec8575b6140008316610eb6575b6120008316610ea4575b6110008316610e92575b6108008316610e80575b6104008316610e6e575b6102008316610e5c575b610100831615610cf157680100000000000000b102831c610cf1565b6801000000000000016302831c610e40565b680100000000000002c602831c610e36565b6801000000000000058c02831c610e2c565b68010000000000000b1702831c610e22565b6801000000000000162e02831c610e18565b68010000000000002c5d02831c610e0e565b680100000000000058b902831c610e04565b628000008316610fb0575b624000008316610f9e575b622000008316610f8c575b621000008316610f7a575b620800008316610f68575b620400008316610f56575b620200008316610f44575b62010000831615610ce7576801000000000000b17202831c610ce7565b680100000000000162e402831c610f27565b6801000000000002c5c802831c610f1c565b68010000000000058b9102831c610f11565b680100000000000b172102831c610f06565b68010000000000162e4302831c610efb565b680100000000002c5c8602831c610ef0565b6801000000000058b90c02831c610ee5565b638000000083166110a0575b6340000000831661108e575b6320000000831661107c575b6310000000831661106a575b63080000008316611058575b63040000008316611046575b63020000008316611034575b6301000000831615610cdc5768010000000000b1721802831c610cdc565b6801000000000162e43002831c611016565b68010000000002c5c86002831c61100a565b680100000000058b90c002831c610ffe565b6801000000000b17217f02831c610ff2565b680100000000162e42ff02831c610fe6565b6801000000002c5c85fe02831c610fda565b68010000000058b90bfc02831c610fce565b6480000000008316611198575b6440000000008316611186575b6420000000008316611174575b6410000000008316611162575b6408000000008316611150575b640400000000831661113e575b640200000000831661112c575b640100000000831615610cd057680100000000b17217f802831c610cd0565b68010000000162e42ff102831c61110d565b680100000002c5c85fe302831c611100565b6801000000058b90bfce02831c6110f3565b68010000000b17217fbb02831c6110e6565b6801000000162e42fff002831c6110d9565b68010000002c5c8601cc02831c6110cc565b680100000058b90c0b4902831c6110bf565b658000000000008316611298575b654000000000008316611286575b652000000000008316611274575b651000000000008316611262575b650800000000008316611250575b65040000000000831661123e575b65020000000000831661122c575b65010000000000831615610cc3576801000000b17218355102831c610cc3565b680100000162e430e5a202831c61120c565b6801000002c5c863b73f02831c6111fe565b68010000058b90cf1e6e02831c6111f0565b680100000b1721bcfc9a02831c6111e2565b68010000162e43f4f83102831c6111d4565b680100002c5c89d5ec6d02831c6111c6565b6801000058b91b5bc9ae02831c6111b8565b668000000000000083166113a0575b6640000000000000831661138e575b6620000000000000831661137c575b6610000000000000831661136a575b66080000000000008316611358575b66040000000000008316611346575b66020000000000008316611334575b6601000000000000831615610cb55768010000b17255775c0402831c610cb5565b6801000162e525ee054702831c611313565b68010002c5cc37da949202831c611304565b680100058ba01fb9f96d02831c6112f5565b6801000b175effdc76ba02831c6112e6565b680100162f3904051fa102831c6112d7565b6801002c605e2e8cec5002831c6112c8565b68010058c86da1c09ea202831c6112b9565b67800000000000000083166114b0575b674000000000000000831661149e575b672000000000000000831661148c575b671000000000000000831661147a575b6708000000000000008316611468575b6704000000000000008316611456575b6702000000000000008316611444575b670100000000000000831615610ca657680100b1afa5abcbed6102831c610ca6565b68010163da9fb33356d802831c611422565b680102c9a3e778060ee702831c611412565b6801059b0d31585743ae02831c611402565b68010b5586cf9890f62a02831c6113f2565b6801172b83c7d517adce02831c6113e2565b6801306fe0a31b7152df02831c6113d2565b5068016a09e667f3bcc909607f1b6113c256fea2646970667358221220c2bf24d1df776d177a525bd6c90ecc91b2a924efefa1a51e28f913a3723dcc4564736f6c63430008150033",
        "linkReferences": {}
    },
    "methodIdentifiers": {
        "INTEREST_PER_YEAR_LOG2()": "f6908f7c",
        "START_SUPPLY()": "21daf085",
        "acceptOwnership()": "79ba5097",
        "inflatedSupplyAfter(uint256)": "87b11034",
        "initialize(address,address)": "485cc955",
        "migration()": "1705a3bd",
        "mint()": "1249c58b",
        "owner()": "8da5cb5b",
        "pendingOwner()": "e30c3978",
        "renounceOwnership()": "715018a6",
        "startTimestamp()": "e6fd48bc",
        "token()": "fc0c546a",
        "transferOwnership(address)": "f2fde38b",
        "treasury()": "61d027b3",
        "version()": "54fd4d50"
    },
    "id": 74
}